{
  "_format": "hh-sol-artifact-1",
  "contractName": "BetaContract",
  "sourceName": "contracts/BetaContract.sol",
  "abi": [
    {
      "inputs": [],
      "stateMutability": "nonpayable",
      "type": "constructor"
    },
    {
      "anonymous": false,
      "inputs": [
        {
          "indexed": false,
          "internalType": "uint256",
          "name": "expiryDate",
          "type": "uint256"
        }
      ],
      "name": "ExpiryDateEvent",
      "type": "event"
    },
    {
      "anonymous": false,
      "inputs": [
        {
          "indexed": false,
          "internalType": "uint256",
          "name": "orderId",
          "type": "uint256"
        }
      ],
      "name": "OrderIdEvent",
      "type": "event"
    },
    {
      "anonymous": false,
      "inputs": [
        {
          "indexed": false,
          "internalType": "bool",
          "name": "orderState",
          "type": "bool"
        }
      ],
      "name": "OrderStateEvent",
      "type": "event"
    },
    {
      "anonymous": false,
      "inputs": [
        {
          "indexed": false,
          "internalType": "address",
          "name": "owner",
          "type": "address"
        }
      ],
      "name": "OwnerEvent",
      "type": "event"
    },
    {
      "anonymous": false,
      "inputs": [
        {
          "indexed": false,
          "internalType": "uint256",
          "name": "refundState",
          "type": "uint256"
        }
      ],
      "name": "RefundStateEvent",
      "type": "event"
    },
    {
      "inputs": [
        {
          "internalType": "address",
          "name": "seller",
          "type": "address"
        },
        {
          "internalType": "uint256",
          "name": "price",
          "type": "uint256"
        },
        {
          "internalType": "uint256",
          "name": "id",
          "type": "uint256"
        },
        {
          "internalType": "uint256",
          "name": "expiryDate",
          "type": "uint256"
        }
      ],
      "name": "buy",
      "outputs": [],
      "stateMutability": "payable",
      "type": "function"
    },
    {
      "inputs": [
        {
          "internalType": "uint256",
          "name": "id",
          "type": "uint256"
        }
      ],
      "name": "collectOrder",
      "outputs": [],
      "stateMutability": "payable",
      "type": "function"
    },
    {
      "inputs": [
        {
          "internalType": "address",
          "name": "seller",
          "type": "address"
        },
        {
          "internalType": "uint256",
          "name": "id",
          "type": "uint256"
        }
      ],
      "name": "collectRefund",
      "outputs": [],
      "stateMutability": "payable",
      "type": "function"
    },
    {
      "inputs": [
        {
          "internalType": "uint256",
          "name": "id",
          "type": "uint256"
        }
      ],
      "name": "getExpiryDate",
      "outputs": [
        {
          "internalType": "uint256",
          "name": "",
          "type": "uint256"
        }
      ],
      "stateMutability": "nonpayable",
      "type": "function"
    },
    {
      "inputs": [
        {
          "internalType": "address",
          "name": "seller",
          "type": "address"
        },
        {
          "internalType": "uint256",
          "name": "id",
          "type": "uint256"
        }
      ],
      "name": "getExpiryDate",
      "outputs": [
        {
          "internalType": "uint256",
          "name": "",
          "type": "uint256"
        }
      ],
      "stateMutability": "nonpayable",
      "type": "function"
    },
    {
      "inputs": [
        {
          "internalType": "address",
          "name": "seller",
          "type": "address"
        },
        {
          "internalType": "uint256",
          "name": "id",
          "type": "uint256"
        }
      ],
      "name": "getOrderState",
      "outputs": [
        {
          "internalType": "bool",
          "name": "",
          "type": "bool"
        }
      ],
      "stateMutability": "nonpayable",
      "type": "function"
    },
    {
      "inputs": [
        {
          "internalType": "uint256",
          "name": "id",
          "type": "uint256"
        }
      ],
      "name": "getOrderState",
      "outputs": [
        {
          "internalType": "bool",
          "name": "",
          "type": "bool"
        }
      ],
      "stateMutability": "nonpayable",
      "type": "function"
    },
    {
      "inputs": [],
      "name": "getOwner",
      "outputs": [
        {
          "internalType": "address",
          "name": "",
          "type": "address"
        }
      ],
      "stateMutability": "nonpayable",
      "type": "function"
    },
    {
      "inputs": [
        {
          "internalType": "address",
          "name": "seller",
          "type": "address"
        },
        {
          "internalType": "uint256",
          "name": "id",
          "type": "uint256"
        }
      ],
      "name": "getRefundState",
      "outputs": [
        {
          "internalType": "uint256",
          "name": "",
          "type": "uint256"
        }
      ],
      "stateMutability": "nonpayable",
      "type": "function"
    },
    {
      "inputs": [
        {
          "internalType": "uint256",
          "name": "id",
          "type": "uint256"
        }
      ],
      "name": "getRefundState",
      "outputs": [
        {
          "internalType": "uint256",
          "name": "",
          "type": "uint256"
        }
      ],
      "stateMutability": "nonpayable",
      "type": "function"
    },
    {
      "inputs": [
        {
          "internalType": "address",
          "name": "seller",
          "type": "address"
        },
        {
          "internalType": "uint256",
          "name": "id",
          "type": "uint256"
        }
      ],
      "name": "requestRefund",
      "outputs": [],
      "stateMutability": "nonpayable",
      "type": "function"
    },
    {
      "inputs": [
        {
          "internalType": "address",
          "name": "buyer",
          "type": "address"
        },
        {
          "internalType": "uint256",
          "name": "price",
          "type": "uint256"
        },
        {
          "internalType": "uint256",
          "name": "expiryDate",
          "type": "uint256"
        }
      ],
      "name": "sell",
      "outputs": [
        {
          "internalType": "uint256",
          "name": "",
          "type": "uint256"
        }
      ],
      "stateMutability": "nonpayable",
      "type": "function"
    },
    {
      "inputs": [
        {
          "internalType": "address",
          "name": "newOwner",
          "type": "address"
        }
      ],
      "name": "setOwner",
      "outputs": [],
      "stateMutability": "nonpayable",
      "type": "function"
    },
    {
      "inputs": [
        {
          "internalType": "address",
          "name": "seller",
          "type": "address"
        },
        {
          "internalType": "uint256",
          "name": "id",
          "type": "uint256"
        },
        {
          "internalType": "enum BetaContract.RefundState",
          "name": "newRefundState",
          "type": "uint8"
        }
      ],
      "name": "updateRefundState",
      "outputs": [],
      "stateMutability": "nonpayable",
      "type": "function"
    }
  ],
  "bytecode": "0x608060405234801561001057600080fd5b5033600160006101000a81548173ffffffffffffffffffffffffffffffffffffffff021916908373ffffffffffffffffffffffffffffffffffffffff1602179055506139ec806100616000396000f3fe6080604052600436106100dd5760003560e01c80636a2724621161007f578063810bd6af11610059578063810bd6af146102b9578063893d20e8146102f657806399652de714610321578063d5e7a54b1461034a576100dd565b80636a2724621461022357806376e31d61146102605780637c7cb0ff1461029d576100dd565b80631622dbe4116100bb5780631622dbe4146101505780635997dde71461016c5780635e1ee216146101a95780636833f200146101e6576100dd565b8063028b2390146100e257806308c9f7fd1461010b57806313af403514610127575b600080fd5b3480156100ee57600080fd5b50610109600480360381019061010491906128b8565b610387565b005b6101256004803603810190610120919061290b565b6106eb565b005b34801561013357600080fd5b5061014e6004803603810190610149919061294b565b610a8d565b005b61016a60048036038101906101659190612978565b610b61565b005b34801561017857600080fd5b50610193600480360381019061018e919061290b565b610ef9565b6040516101a091906129fa565b60405180910390f35b3480156101b557600080fd5b506101d060048036038101906101cb919061290b565b611136565b6040516101dd9190612a24565b60405180910390f35b3480156101f257600080fd5b5061020d60048036038101906102089190612a3f565b611397565b60405161021a9190612a24565b60405180910390f35b34801561022f57600080fd5b5061024a60048036038101906102459190612a6c565b6115d4565b6040516102579190612a24565b60405180910390f35b34801561026c57600080fd5b506102876004803603810190610282919061290b565b611994565b6040516102949190612a24565b60405180910390f35b6102b760048036038101906102b29190612a3f565b611bd1565b005b3480156102c557600080fd5b506102e060048036038101906102db9190612a3f565b611f43565b6040516102ed91906129fa565b60405180910390f35b34801561030257600080fd5b5061030b612180565b6040516103189190612ace565b60405180910390f35b34801561032d57600080fd5b506103486004803603810190610343919061290b565b612203565b005b34801561035657600080fd5b50610371600480360381019061036c9190612a3f565b61251c565b60405161037e9190612a24565b60405180910390f35b600160009054906101000a900473ffffffffffffffffffffffffffffffffffffffff1673ffffffffffffffffffffffffffffffffffffffff163373ffffffffffffffffffffffffffffffffffffffff1614610417576040517f08c379a000000000000000000000000000000000000000000000000000000000815260040161040e90612b6c565b60405180910390fd5b60008060008573ffffffffffffffffffffffffffffffffffffffff1673ffffffffffffffffffffffffffffffffffffffff16815260200190815260200160002060000160008481526020019081526020016000209050600073ffffffffffffffffffffffffffffffffffffffff168160000160009054906101000a900473ffffffffffffffffffffffffffffffffffffffff1673ffffffffffffffffffffffffffffffffffffffff1603610500576040517f08c379a00000000000000000000000000000000000000000000000000000000081526004016104f790612bd8565b60405180910390fd5b8060050160019054906101000a900460ff1615610552576040517f08c379a000000000000000000000000000000000000000000000000000000000815260040161054990612c44565b60405180910390fd5b6000600381111561056657610565612c64565b5b8160050160009054906101000a900460ff16600381111561058a57610589612c64565b5b036105ca576040517f08c379a00000000000000000000000000000000000000000000000000000000081526004016105c190612d05565b60405180910390fd5b600260038111156105de576105dd612c64565b5b8160050160009054906101000a900460ff16600381111561060257610601612c64565b5b03610642576040517f08c379a000000000000000000000000000000000000000000000000000000000815260040161063990612d97565b60405180910390fd5b60038081111561065557610654612c64565b5b8160050160009054906101000a900460ff16600381111561067957610678612c64565b5b036106b9576040517f08c379a00000000000000000000000000000000000000000000000000000000081526004016106b090612e29565b60405180910390fd5b818160050160006101000a81548160ff021916908360038111156106e0576106df612c64565b5b021790555050505050565b60008060008473ffffffffffffffffffffffffffffffffffffffff1673ffffffffffffffffffffffffffffffffffffffff168152602001908152602001600020600001600083815260200190815260200160002090503373ffffffffffffffffffffffffffffffffffffffff168160000160009054906101000a900473ffffffffffffffffffffffffffffffffffffffff1673ffffffffffffffffffffffffffffffffffffffff16146107d3576040517f08c379a00000000000000000000000000000000000000000000000000000000081526004016107ca90612ebb565b60405180910390fd5b8060050160019054906101000a900460ff16156108b8576003808111156107fd576107fc612c64565b5b8160050160009054906101000a900460ff16600381111561082157610820612c64565b5b03610861576040517f08c379a000000000000000000000000000000000000000000000000000000000815260040161085890612f73565b60405180910390fd5b8060050160019054906101000a900460ff16156108b3576040517f08c379a00000000000000000000000000000000000000000000000000000000081526004016108aa90612c44565b60405180910390fd5b610a20565b600160038111156108cc576108cb612c64565b5b8160050160009054906101000a900460ff1660038111156108f0576108ef612c64565b5b03610930576040517f08c379a00000000000000000000000000000000000000000000000000000000081526004016109279061302b565b60405180910390fd5b60038081111561094357610942612c64565b5b8160050160009054906101000a900460ff16600381111561096757610966612c64565b5b036109a7576040517f08c379a000000000000000000000000000000000000000000000000000000000815260040161099e906130e3565b60405180910390fd5b600060038111156109bb576109ba612c64565b5b8160050160009054906101000a900460ff1660038111156109df576109de612c64565b5b03610a1f576040517f08c379a0000000000000000000000000000000000000000000000000000000008152600401610a1690612d05565b60405180910390fd5b5b60018160050160016101000a81548160ff0219169083151502179055503373ffffffffffffffffffffffffffffffffffffffff166108fc82600201549081150290604051600060405180830381858888f19350505050158015610a87573d6000803e3d6000fd5b50505050565b600160009054906101000a900473ffffffffffffffffffffffffffffffffffffffff1673ffffffffffffffffffffffffffffffffffffffff163373ffffffffffffffffffffffffffffffffffffffff1614610b1d576040517f08c379a0000000000000000000000000000000000000000000000000000000008152600401610b1490613175565b60405180910390fd5b80600160006101000a81548173ffffffffffffffffffffffffffffffffffffffff021916908373ffffffffffffffffffffffffffffffffffffffff16021790555050565b3373ffffffffffffffffffffffffffffffffffffffff168473ffffffffffffffffffffffffffffffffffffffff1603610bcf576040517f08c379a0000000000000000000000000000000000000000000000000000000008152600401610bc6906131e1565b60405180910390fd5b60008303610c12576040517f08c379a0000000000000000000000000000000000000000000000000000000008152600401610c099061324d565b60405180910390fd5b348314610c54576040517f08c379a0000000000000000000000000000000000000000000000000000000008152600401610c4b906132b9565b60405180910390fd5b60008060008673ffffffffffffffffffffffffffffffffffffffff1673ffffffffffffffffffffffffffffffffffffffff168152602001908152602001600020600001600084815260200190815260200160002090503373ffffffffffffffffffffffffffffffffffffffff168160000160009054906101000a900473ffffffffffffffffffffffffffffffffffffffff1673ffffffffffffffffffffffffffffffffffffffff1614610d3c576040517f08c379a0000000000000000000000000000000000000000000000000000000008152600401610d3390612ebb565b60405180910390fd5b8060050160019054906101000a900460ff1615610d8e576040517f08c379a0000000000000000000000000000000000000000000000000000000008152600401610d8590612c44565b60405180910390fd5b8473ffffffffffffffffffffffffffffffffffffffff168160010160009054906101000a900473ffffffffffffffffffffffffffffffffffffffff1673ffffffffffffffffffffffffffffffffffffffff1614610e20576040517f08c379a0000000000000000000000000000000000000000000000000000000008152600401610e1790613325565b60405180910390fd5b83816002015414610e66576040517f08c379a0000000000000000000000000000000000000000000000000000000008152600401610e5d90613391565b60405180910390fd5b82816003015414610eac576040517f08c379a0000000000000000000000000000000000000000000000000000000008152600401610ea3906133fd565b60405180910390fd5b81816004015414610ef2576040517f08c379a0000000000000000000000000000000000000000000000000000000008152600401610ee990613469565b60405180910390fd5b5050505050565b6000806000808573ffffffffffffffffffffffffffffffffffffffff1673ffffffffffffffffffffffffffffffffffffffff16815260200190815260200160002060000160008481526020019081526020016000206040518060e00160405290816000820160009054906101000a900473ffffffffffffffffffffffffffffffffffffffff1673ffffffffffffffffffffffffffffffffffffffff1673ffffffffffffffffffffffffffffffffffffffff1681526020016001820160009054906101000a900473ffffffffffffffffffffffffffffffffffffffff1673ffffffffffffffffffffffffffffffffffffffff1673ffffffffffffffffffffffffffffffffffffffff1681526020016002820154815260200160038201548152602001600482015481526020016005820160009054906101000a900460ff16600381111561104857611047612c64565b5b600381111561105a57611059612c64565b5b81526020016005820160019054906101000a900460ff16151515158152505090503373ffffffffffffffffffffffffffffffffffffffff16816000015173ffffffffffffffffffffffffffffffffffffffff16146110ed576040517f08c379a00000000000000000000000000000000000000000000000000000000081526004016110e490612ebb565b60405180910390fd5b7f9987b2b6a9f6a77220b467777250097df7504ed5ef3d5099fa083623a00565288160c0015160405161112091906129fa565b60405180910390a18060c0015191505092915050565b6000806000808573ffffffffffffffffffffffffffffffffffffffff1673ffffffffffffffffffffffffffffffffffffffff16815260200190815260200160002060000160008481526020019081526020016000206040518060e00160405290816000820160009054906101000a900473ffffffffffffffffffffffffffffffffffffffff1673ffffffffffffffffffffffffffffffffffffffff1673ffffffffffffffffffffffffffffffffffffffff1681526020016001820160009054906101000a900473ffffffffffffffffffffffffffffffffffffffff1673ffffffffffffffffffffffffffffffffffffffff1673ffffffffffffffffffffffffffffffffffffffff1681526020016002820154815260200160038201548152602001600482015481526020016005820160009054906101000a900460ff16600381111561128557611284612c64565b5b600381111561129757611296612c64565b5b81526020016005820160019054906101000a900460ff16151515158152505090503373ffffffffffffffffffffffffffffffffffffffff16816000015173ffffffffffffffffffffffffffffffffffffffff161461132a576040517f08c379a000000000000000000000000000000000000000000000000000000000815260040161132190612ebb565b60405180910390fd5b7fe21a1578980e18968ec7fcbe95c4a464c3ab97a0e5df33129c8c3a5f3846044c8160a00151600381111561136257611361612c64565b5b60405161136f9190612a24565b60405180910390a18060a00151600381111561138e5761138d612c64565b5b91505092915050565b6000806000803373ffffffffffffffffffffffffffffffffffffffff1673ffffffffffffffffffffffffffffffffffffffff16815260200190815260200160002060000160008481526020019081526020016000206040518060e00160405290816000820160009054906101000a900473ffffffffffffffffffffffffffffffffffffffff1673ffffffffffffffffffffffffffffffffffffffff1673ffffffffffffffffffffffffffffffffffffffff1681526020016001820160009054906101000a900473ffffffffffffffffffffffffffffffffffffffff1673ffffffffffffffffffffffffffffffffffffffff1673ffffffffffffffffffffffffffffffffffffffff1681526020016002820154815260200160038201548152602001600482015481526020016005820160009054906101000a900460ff1660038111156114e6576114e5612c64565b5b60038111156114f8576114f7612c64565b5b81526020016005820160019054906101000a900460ff1615151515815250509050600073ffffffffffffffffffffffffffffffffffffffff16816000015173ffffffffffffffffffffffffffffffffffffffff160361158c576040517f08c379a000000000000000000000000000000000000000000000000000000000815260040161158390612bd8565b60405180910390fd5b7f4bf16b6eb8f9bde4cc9870bbbc15f97e2c48befd84a2459501564801644f4ad981608001516040516115bf9190612a24565b60405180910390a18060800151915050919050565b60003373ffffffffffffffffffffffffffffffffffffffff168473ffffffffffffffffffffffffffffffffffffffff1603611644576040517f08c379a000000000000000000000000000000000000000000000000000000000815260040161163b906134d5565b60405180910390fd5b60008311611687576040517f08c379a000000000000000000000000000000000000000000000000000000000815260040161167e9061324d565b60405180910390fd5b4282116116c9576040517f08c379a00000000000000000000000000000000000000000000000000000000081526004016116c090613567565b60405180910390fd5b6116d161277d565b84816000019073ffffffffffffffffffffffffffffffffffffffff16908173ffffffffffffffffffffffffffffffffffffffff168152505033816020019073ffffffffffffffffffffffffffffffffffffffff16908173ffffffffffffffffffffffffffffffffffffffff1681525050838160400181815250506000803373ffffffffffffffffffffffffffffffffffffffff1673ffffffffffffffffffffffffffffffffffffffff16815260200190815260200160002060010160008154611799906135b6565b9190508190558160600181815250508281608001818152505060008160a0019060038111156117cb576117ca612c64565b5b908160038111156117df576117de612c64565b5b8152505060008160c0019015159081151581525050806000803373ffffffffffffffffffffffffffffffffffffffff1673ffffffffffffffffffffffffffffffffffffffff16815260200190815260200160002060000160008360600151815260200190815260200160002060008201518160000160006101000a81548173ffffffffffffffffffffffffffffffffffffffff021916908373ffffffffffffffffffffffffffffffffffffffff16021790555060208201518160010160006101000a81548173ffffffffffffffffffffffffffffffffffffffff021916908373ffffffffffffffffffffffffffffffffffffffff16021790555060408201518160020155606082015181600301556080820151816004015560a08201518160050160006101000a81548160ff0219169083600381111561192257611921612c64565b5b021790555060c08201518160050160016101000a81548160ff0219169083151502179055509050507f267a4593ab96090ede768bd5b11b7ca9da4e6e9d9fbb6cd2f36d26529ff793f4816060015160405161197d9190612a24565b60405180910390a180606001519150509392505050565b6000806000808573ffffffffffffffffffffffffffffffffffffffff1673ffffffffffffffffffffffffffffffffffffffff16815260200190815260200160002060000160008481526020019081526020016000206040518060e00160405290816000820160009054906101000a900473ffffffffffffffffffffffffffffffffffffffff1673ffffffffffffffffffffffffffffffffffffffff1673ffffffffffffffffffffffffffffffffffffffff1681526020016001820160009054906101000a900473ffffffffffffffffffffffffffffffffffffffff1673ffffffffffffffffffffffffffffffffffffffff1673ffffffffffffffffffffffffffffffffffffffff1681526020016002820154815260200160038201548152602001600482015481526020016005820160009054906101000a900460ff166003811115611ae357611ae2612c64565b5b6003811115611af557611af4612c64565b5b81526020016005820160019054906101000a900460ff16151515158152505090503373ffffffffffffffffffffffffffffffffffffffff16816000015173ffffffffffffffffffffffffffffffffffffffff1614611b88576040517f08c379a0000000000000000000000000000000000000000000000000000000008152600401611b7f90612ebb565b60405180910390fd5b7f4bf16b6eb8f9bde4cc9870bbbc15f97e2c48befd84a2459501564801644f4ad98160800151604051611bbb9190612a24565b60405180910390a1806080015191505092915050565b60008060003373ffffffffffffffffffffffffffffffffffffffff1673ffffffffffffffffffffffffffffffffffffffff16815260200190815260200160002060000160008381526020019081526020016000209050600073ffffffffffffffffffffffffffffffffffffffff168160000160009054906101000a900473ffffffffffffffffffffffffffffffffffffffff1673ffffffffffffffffffffffffffffffffffffffff1603611cba576040517f08c379a0000000000000000000000000000000000000000000000000000000008152600401611cb190612bd8565b60405180910390fd5b8060050160019054906101000a900460ff1615611da05760026003811115611ce557611ce4612c64565b5b8160050160009054906101000a900460ff166003811115611d0957611d08612c64565b5b03611d49576040517f08c379a0000000000000000000000000000000000000000000000000000000008152600401611d4090613696565b60405180910390fd5b8060050160019054906101000a900460ff1615611d9b576040517f08c379a0000000000000000000000000000000000000000000000000000000008152600401611d9290612c44565b60405180910390fd5b611ed7565b60016003811115611db457611db3612c64565b5b8160050160009054906101000a900460ff166003811115611dd857611dd7612c64565b5b03611e18576040517f08c379a0000000000000000000000000000000000000000000000000000000008152600401611e0f9061302b565b60405180910390fd5b60026003811115611e2c57611e2b612c64565b5b8160050160009054906101000a900460ff166003811115611e5057611e4f612c64565b5b03611e90576040517f08c379a0000000000000000000000000000000000000000000000000000000008152600401611e879061374e565b60405180910390fd5b42816004015410611ed6576040517f08c379a0000000000000000000000000000000000000000000000000000000008152600401611ecd906137e0565b60405180910390fd5b5b60018160050160016101000a81548160ff0219169083151502179055503373ffffffffffffffffffffffffffffffffffffffff166108fc82600201549081150290604051600060405180830381858888f19350505050158015611f3e573d6000803e3d6000fd5b505050565b6000806000803373ffffffffffffffffffffffffffffffffffffffff1673ffffffffffffffffffffffffffffffffffffffff16815260200190815260200160002060000160008481526020019081526020016000206040518060e00160405290816000820160009054906101000a900473ffffffffffffffffffffffffffffffffffffffff1673ffffffffffffffffffffffffffffffffffffffff1673ffffffffffffffffffffffffffffffffffffffff1681526020016001820160009054906101000a900473ffffffffffffffffffffffffffffffffffffffff1673ffffffffffffffffffffffffffffffffffffffff1673ffffffffffffffffffffffffffffffffffffffff1681526020016002820154815260200160038201548152602001600482015481526020016005820160009054906101000a900460ff16600381111561209257612091612c64565b5b60038111156120a4576120a3612c64565b5b81526020016005820160019054906101000a900460ff1615151515815250509050600073ffffffffffffffffffffffffffffffffffffffff16816000015173ffffffffffffffffffffffffffffffffffffffff1603612138576040517f08c379a000000000000000000000000000000000000000000000000000000000815260040161212f90612bd8565b60405180910390fd5b7f9987b2b6a9f6a77220b467777250097df7504ed5ef3d5099fa083623a00565288160c0015160405161216b91906129fa565b60405180910390a18060c00151915050919050565b60007fd30bb139b3decb2474a8d5025c92d2845a89e67e468c2cf3da2a9bb70c5e7ac4600160009054906101000a900473ffffffffffffffffffffffffffffffffffffffff166040516121d39190612ace565b60405180910390a1600160009054906101000a900473ffffffffffffffffffffffffffffffffffffffff16905090565b60008060008473ffffffffffffffffffffffffffffffffffffffff1673ffffffffffffffffffffffffffffffffffffffff168152602001908152602001600020600001600083815260200190815260200160002090503373ffffffffffffffffffffffffffffffffffffffff168160000160009054906101000a900473ffffffffffffffffffffffffffffffffffffffff1673ffffffffffffffffffffffffffffffffffffffff16146122eb576040517f08c379a00000000000000000000000000000000000000000000000000000000081526004016122e290612ebb565b60405180910390fd5b8060050160019054906101000a900460ff161561233d576040517f08c379a000000000000000000000000000000000000000000000000000000000815260040161233490612c44565b60405180910390fd5b6001600381111561235157612350612c64565b5b8160050160009054906101000a900460ff16600381111561237557612374612c64565b5b036123b5576040517f08c379a00000000000000000000000000000000000000000000000000000000081526004016123ac9061302b565b60405180910390fd5b600260038111156123c9576123c8612c64565b5b8160050160009054906101000a900460ff1660038111156123ed576123ec612c64565b5b0361242d576040517f08c379a000000000000000000000000000000000000000000000000000000000815260040161242490613872565b60405180910390fd5b6003808111156124405761243f612c64565b5b8160050160009054906101000a900460ff16600381111561246457612463612c64565b5b036124a4576040517f08c379a000000000000000000000000000000000000000000000000000000000815260040161249b90613904565b60405180910390fd5b428160040154116124ea576040517f08c379a00000000000000000000000000000000000000000000000000000000081526004016124e190613996565b60405180910390fd5b60018160050160006101000a81548160ff0219169083600381111561251257612511612c64565b5b0217905550505050565b6000806000803373ffffffffffffffffffffffffffffffffffffffff1673ffffffffffffffffffffffffffffffffffffffff16815260200190815260200160002060000160008481526020019081526020016000206040518060e00160405290816000820160009054906101000a900473ffffffffffffffffffffffffffffffffffffffff1673ffffffffffffffffffffffffffffffffffffffff1673ffffffffffffffffffffffffffffffffffffffff1681526020016001820160009054906101000a900473ffffffffffffffffffffffffffffffffffffffff1673ffffffffffffffffffffffffffffffffffffffff1673ffffffffffffffffffffffffffffffffffffffff1681526020016002820154815260200160038201548152602001600482015481526020016005820160009054906101000a900460ff16600381111561266b5761266a612c64565b5b600381111561267d5761267c612c64565b5b81526020016005820160019054906101000a900460ff1615151515815250509050600073ffffffffffffffffffffffffffffffffffffffff16816000015173ffffffffffffffffffffffffffffffffffffffff1603612711576040517f08c379a000000000000000000000000000000000000000000000000000000000815260040161270890612bd8565b60405180910390fd5b7fe21a1578980e18968ec7fcbe95c4a464c3ab97a0e5df33129c8c3a5f3846044c8160a00151600381111561274957612748612c64565b5b6040516127569190612a24565b60405180910390a18060a00151600381111561277557612774612c64565b5b915050919050565b6040518060e00160405280600073ffffffffffffffffffffffffffffffffffffffff168152602001600073ffffffffffffffffffffffffffffffffffffffff168152602001600081526020016000815260200160008152602001600060038111156127eb576127ea612c64565b5b81526020016000151581525090565b600080fd5b600073ffffffffffffffffffffffffffffffffffffffff82169050919050565b600061282a826127ff565b9050919050565b61283a8161281f565b811461284557600080fd5b50565b60008135905061285781612831565b92915050565b6000819050919050565b6128708161285d565b811461287b57600080fd5b50565b60008135905061288d81612867565b92915050565b600481106128a057600080fd5b50565b6000813590506128b281612893565b92915050565b6000806000606084860312156128d1576128d06127fa565b5b60006128df86828701612848565b93505060206128f08682870161287e565b9250506040612901868287016128a3565b9150509250925092565b60008060408385031215612922576129216127fa565b5b600061293085828601612848565b92505060206129418582860161287e565b9150509250929050565b600060208284031215612961576129606127fa565b5b600061296f84828501612848565b91505092915050565b60008060008060808587031215612992576129916127fa565b5b60006129a087828801612848565b94505060206129b18782880161287e565b93505060406129c28782880161287e565b92505060606129d38782880161287e565b91505092959194509250565b60008115159050919050565b6129f4816129df565b82525050565b6000602082019050612a0f60008301846129eb565b92915050565b612a1e8161285d565b82525050565b6000602082019050612a396000830184612a15565b92915050565b600060208284031215612a5557612a546127fa565b5b6000612a638482850161287e565b91505092915050565b600080600060608486031215612a8557612a846127fa565b5b6000612a9386828701612848565b9350506020612aa48682870161287e565b9250506040612ab58682870161287e565b9150509250925092565b612ac88161281f565b82525050565b6000602082019050612ae36000830184612abf565b92915050565b600082825260208201905092915050565b7f4f6e6c7920746865206f776e65722063616e207570646174652074686520737460008201527f617465206f66206120726566756e642072657175657374000000000000000000602082015250565b6000612b56603783612ae9565b9150612b6182612afa565b604082019050919050565b60006020820190508181036000830152612b8581612b49565b9050919050565b7f4f7264657220646f6573206e6f74206578697374000000000000000000000000600082015250565b6000612bc2601483612ae9565b9150612bcd82612b8c565b602082019050919050565b60006020820190508181036000830152612bf181612bb5565b9050919050565b7f4f7264657220616c726561647920636f6d706c65746564000000000000000000600082015250565b6000612c2e601783612ae9565b9150612c3982612bf8565b602082019050919050565b60006020820190508181036000830152612c5d81612c21565b9050919050565b7f4e487b7100000000000000000000000000000000000000000000000000000000600052602160045260246000fd5b7f4e6f20726566756e6420686173206265656e2072657175657374656420666f7260008201527f2074686973206f72646572000000000000000000000000000000000000000000602082015250565b6000612cef602b83612ae9565b9150612cfa82612c93565b604082019050919050565b60006020820190508181036000830152612d1e81612ce2565b9050919050565b7f4120726566756e642068617320616c7265616479206265656e2072657175657360008201527f74656420616e6420616363657074656400000000000000000000000000000000602082015250565b6000612d81603083612ae9565b9150612d8c82612d25565b604082019050919050565b60006020820190508181036000830152612db081612d74565b9050919050565b7f4120726566756e642068617320616c7265616479206265656e2072657175657360008201527f74656420616e64206465636c696e656400000000000000000000000000000000602082015250565b6000612e13603083612ae9565b9150612e1e82612db7565b604082019050919050565b60006020820190508181036000830152612e4281612e06565b9050919050565b7f596f7520617265206e6f742074686520627579657220666f722074686973206f60008201527f7264657200000000000000000000000000000000000000000000000000000000602082015250565b6000612ea5602483612ae9565b9150612eb082612e49565b604082019050919050565b60006020820190508181036000830152612ed481612e98565b9050919050565b7f4120726566756e6420686173206265656e2072657175657374656420616e642060008201527f6465636c696e65642e20596f752063616e6e6f7420636f6c6c65637420796f7560208201527f722066756e647320616e796d6f72650000000000000000000000000000000000604082015250565b6000612f5d604f83612ae9565b9150612f6882612edb565b606082019050919050565b60006020820190508181036000830152612f8c81612f50565b9050919050565b7f4120726566756e6420686173206265656e207265717565737465642e2057616960008201527f7420756e74696c6c2069742077696c6c206265206163636570746564206f722060208201527f6465636c696e6564000000000000000000000000000000000000000000000000604082015250565b6000613015604883612ae9565b915061302082612f93565b606082019050919050565b6000602082019050818103600083015261304481613008565b9050919050565b7f4120726566756e6420686173206265656e2072657175657374656420616e642060008201527f6465636c696e65642e20596f752063616e6e6f7420636f6c6c65637420796f7560208201527f722066756e647300000000000000000000000000000000000000000000000000604082015250565b60006130cd604783612ae9565b91506130d88261304b565b606082019050919050565b600060208201905081810360008301526130fc816130c0565b9050919050565b7f4f6e6c7920746865206f776e65722063616e207365742061206e6577206f776e60008201527f6572000000000000000000000000000000000000000000000000000000000000602082015250565b600061315f602283612ae9565b915061316a82613103565b604082019050919050565b6000602082019050818103600083015261318e81613152565b9050919050565b7f53656c6c65722063616e6e6f7420626520746865206275796572000000000000600082015250565b60006131cb601a83612ae9565b91506131d682613195565b602082019050919050565b600060208201905081810360008301526131fa816131be565b9050919050565b7f5072696365206d7573742062652067726561746572207468616e207a65726f00600082015250565b6000613237601f83612ae9565b915061324282613201565b602082019050919050565b600060208201905081810360008301526132668161322a565b9050919050565b7f496e636f7272656374207061796d656e7420616d6f756e742073656e74000000600082015250565b60006132a3601d83612ae9565b91506132ae8261326d565b602082019050919050565b600060208201905081810360008301526132d281613296565b9050919050565b7f53656c6c6572206164647265737320646f6573206e6f74206d61746368000000600082015250565b600061330f601d83612ae9565b915061331a826132d9565b602082019050919050565b6000602082019050818103600083015261333e81613302565b9050919050565b7f4f7264657220707269636520646f6573206e6f74206d61746368000000000000600082015250565b600061337b601a83612ae9565b915061338682613345565b602082019050919050565b600060208201905081810360008301526133aa8161336e565b9050919050565b7f4f7264657220494420646f6573206e6f74206d61746368000000000000000000600082015250565b60006133e7601783612ae9565b91506133f2826133b1565b602082019050919050565b60006020820190508181036000830152613416816133da565b9050919050565b7f4f7264657220657870697279206461746520646f6573206e6f74206d61746368600082015250565b6000613453602083612ae9565b915061345e8261341d565b602082019050919050565b6000602082019050818103600083015261348281613446565b9050919050565b7f42757965722063616e6e6f74206265207468652073656c6c6572000000000000600082015250565b60006134bf601a83612ae9565b91506134ca82613489565b602082019050919050565b600060208201905081810360008301526134ee816134b2565b9050919050565b7f4578706972792064617465206d75737420626520696e2074686520667574757260008201527f6500000000000000000000000000000000000000000000000000000000000000602082015250565b6000613551602183612ae9565b915061355c826134f5565b604082019050919050565b6000602082019050818103600083015261358081613544565b9050919050565b7f4e487b7100000000000000000000000000000000000000000000000000000000600052601160045260246000fd5b60006135c18261285d565b91507fffffffffffffffffffffffffffffffffffffffffffffffffffffffffffffffff82036135f3576135f2613587565b5b600182019050919050565b7f4120726566756e6420686173206265656e2072657175657374656420616e642060008201527f61636365707465642e20596f752063616e6e6f7420636f6c6c65637420796f7560208201527f72206f7264657220616e796d6f72650000000000000000000000000000000000604082015250565b6000613680604f83612ae9565b915061368b826135fe565b606082019050919050565b600060208201905081810360008301526136af81613673565b9050919050565b7f4120726566756e6420686173206265656e2072657175657374656420616e642060008201527f61636365707465642e20596f752063616e6e6f7420636f6c6c65637420796f7560208201527f72206f7264657200000000000000000000000000000000000000000000000000604082015250565b6000613738604783612ae9565b9150613743826136b6565b606082019050919050565b600060208201905081810360008301526137678161372b565b9050919050565b7f596f752063616e6e6f7420636f6c6c65637420796f7572206f7264657220796560008201527f7400000000000000000000000000000000000000000000000000000000000000602082015250565b60006137ca602183612ae9565b91506137d58261376e565b604082019050919050565b600060208201905081810360008301526137f9816137bd565b9050919050565b7f4120726566756e6420686173206265656e2072657175657374656420616e642060008201527f6163636570746564000000000000000000000000000000000000000000000000602082015250565b600061385c602883612ae9565b915061386782613800565b604082019050919050565b6000602082019050818103600083015261388b8161384f565b9050919050565b7f4120726566756e6420686173206265656e2072657175657374656420616e642060008201527f6465636c696e6564000000000000000000000000000000000000000000000000602082015250565b60006138ee602883612ae9565b91506138f982613892565b604082019050919050565b6000602082019050818103600083015261391d816138e1565b9050919050565b7f4f7264657220657870697265642e20596f752063616e6e6f7420636f6c6c656360008201527f7420796f7572206f7264657220616e796d6f7265000000000000000000000000602082015250565b6000613980603483612ae9565b915061398b82613924565b604082019050919050565b600060208201905081810360008301526139af81613973565b905091905056fea26469706673582212206261f48eb716e1bff328511cb4eeef9ca2547f5351a0e3148ce30d633986a22764736f6c63430008130033",
  "linkReferences": {},
  "deployedLinkReferences": {}
}